{
  "contractName": "Wallet",
  "abi": [
    {
      "inputs": [
        {
          "internalType": "address[]",
          "name": "_approvers",
          "type": "address[]"
        },
        {
          "internalType": "uint256",
          "name": "_quorum",
          "type": "uint256"
        }
      ],
      "stateMutability": "nonpayable",
      "type": "constructor"
    },
    {
      "inputs": [
        {
          "internalType": "address",
          "name": "",
          "type": "address"
        },
        {
          "internalType": "uint256",
          "name": "",
          "type": "uint256"
        }
      ],
      "name": "approvals",
      "outputs": [
        {
          "internalType": "bool",
          "name": "",
          "type": "bool"
        }
      ],
      "stateMutability": "view",
      "type": "function",
      "constant": true
    },
    {
      "inputs": [
        {
          "internalType": "uint256",
          "name": "",
          "type": "uint256"
        }
      ],
      "name": "approvers",
      "outputs": [
        {
          "internalType": "address",
          "name": "",
          "type": "address"
        }
      ],
      "stateMutability": "view",
      "type": "function",
      "constant": true
    },
    {
      "inputs": [],
      "name": "quorum",
      "outputs": [
        {
          "internalType": "uint256",
          "name": "",
          "type": "uint256"
        }
      ],
      "stateMutability": "view",
      "type": "function",
      "constant": true
    },
    {
      "inputs": [
        {
          "internalType": "uint256",
          "name": "",
          "type": "uint256"
        }
      ],
      "name": "transfers",
      "outputs": [
        {
          "internalType": "uint256",
          "name": "id",
          "type": "uint256"
        },
        {
          "internalType": "uint256",
          "name": "amount",
          "type": "uint256"
        },
        {
          "internalType": "address payable",
          "name": "to",
          "type": "address"
        },
        {
          "internalType": "uint256",
          "name": "approvals",
          "type": "uint256"
        },
        {
          "internalType": "bool",
          "name": "sent",
          "type": "bool"
        }
      ],
      "stateMutability": "view",
      "type": "function",
      "constant": true
    },
    {
      "stateMutability": "payable",
      "type": "receive",
      "payable": true
    },
    {
      "inputs": [],
      "name": "getApprovers",
      "outputs": [
        {
          "internalType": "address[]",
          "name": "",
          "type": "address[]"
        }
      ],
      "stateMutability": "view",
      "type": "function",
      "constant": true
    },
    {
      "inputs": [],
      "name": "getTransfers",
      "outputs": [
        {
          "components": [
            {
              "internalType": "uint256",
              "name": "id",
              "type": "uint256"
            },
            {
              "internalType": "uint256",
              "name": "amount",
              "type": "uint256"
            },
            {
              "internalType": "address payable",
              "name": "to",
              "type": "address"
            },
            {
              "internalType": "uint256",
              "name": "approvals",
              "type": "uint256"
            },
            {
              "internalType": "bool",
              "name": "sent",
              "type": "bool"
            },
            {
              "internalType": "address[]",
              "name": "approvers",
              "type": "address[]"
            }
          ],
          "internalType": "struct Wallet.Transfer[]",
          "name": "",
          "type": "tuple[]"
        }
      ],
      "stateMutability": "view",
      "type": "function",
      "constant": true
    },
    {
      "inputs": [
        {
          "internalType": "uint256",
          "name": "amount",
          "type": "uint256"
        },
        {
          "internalType": "address payable",
          "name": "to",
          "type": "address"
        }
      ],
      "name": "createTransfer",
      "outputs": [],
      "stateMutability": "nonpayable",
      "type": "function"
    },
    {
      "inputs": [
        {
          "internalType": "uint256",
          "name": "id",
          "type": "uint256"
        }
      ],
      "name": "approveTransfer",
      "outputs": [],
      "stateMutability": "nonpayable",
      "type": "function"
    }
  ],
  "bytecode": "0x60806040523480156200001157600080fd5b506040516200173a3803806200173a833981810160405281019062000037919062000336565b81600090805190602001906200004f9291906200005f565b508060018190555050506200039c565b828054828255906000526020600020908101928215620000db579160200282015b82811115620000da5782518260006101000a81548173ffffffffffffffffffffffffffffffffffffffff021916908373ffffffffffffffffffffffffffffffffffffffff1602179055509160200191906001019062000080565b5b509050620000ea9190620000ee565b5090565b5b8082111562000109576000816000905550600101620000ef565b5090565b6000604051905090565b600080fd5b600080fd5b600080fd5b6000601f19601f8301169050919050565b7f4e487b7100000000000000000000000000000000000000000000000000000000600052604160045260246000fd5b620001718262000126565b810181811067ffffffffffffffff8211171562000193576200019262000137565b5b80604052505050565b6000620001a86200010d565b9050620001b6828262000166565b919050565b600067ffffffffffffffff821115620001d957620001d862000137565b5b602082029050602081019050919050565b600080fd5b600073ffffffffffffffffffffffffffffffffffffffff82169050919050565b60006200021c82620001ef565b9050919050565b6200022e816200020f565b81146200023a57600080fd5b50565b6000815190506200024e8162000223565b92915050565b60006200026b6200026584620001bb565b6200019c565b90508083825260208201905060208402830185811115620002915762000290620001ea565b5b835b81811015620002be5780620002a988826200023d565b84526020840193505060208101905062000293565b5050509392505050565b600082601f830112620002e057620002df62000121565b5b8151620002f284826020860162000254565b91505092915050565b6000819050919050565b6200031081620002fb565b81146200031c57600080fd5b50565b600081519050620003308162000305565b92915050565b6000806040838503121562000350576200034f62000117565b5b600083015167ffffffffffffffff8111156200037157620003706200011c565b5b6200037f85828601620002c8565b925050602062000392858286016200031f565b9150509250929050565b61138e80620003ac6000396000f3fe60806040526004361061007f5760003560e01c80639377d7111161004e5780639377d71114610135578063cacca4a014610176578063d3650fb81461019f578063ffabc673146101dc57610086565b80631703a0181461008b5780632f65142c146100b65780634c12fa47146100e15780636cb3e8ef1461010a57610086565b3661008657005b600080fd5b34801561009757600080fd5b506100a0610219565b6040516100ad9190610c1c565b60405180910390f35b3480156100c257600080fd5b506100cb61021f565b6040516100d89190610ebd565b60405180910390f35b3480156100ed57600080fd5b5061010860048036038101906101039190610f3c565b61039b565b005b34801561011657600080fd5b5061011f6105a1565b60405161012c9190610feb565b60405180910390f35b34801561014157600080fd5b5061015c6004803603810190610157919061100d565b61062f565b60405161016d959493929190611058565b60405180910390f35b34801561018257600080fd5b5061019d6004803603810190610198919061100d565b6106a2565b005b3480156101ab57600080fd5b506101c660048036038101906101c1919061100d565b610aee565b6040516101d391906110ba565b60405180910390f35b3480156101e857600080fd5b5061020360048036038101906101fe9190611101565b610b2d565b6040516102109190611141565b60405180910390f35b60015481565b60606002805480602002602001604051908101604052809291908181526020016000905b8282101561039257838290600052602060002090600602016040518060c001604052908160008201548152602001600182015481526020016002820160009054906101000a900473ffffffffffffffffffffffffffffffffffffffff1673ffffffffffffffffffffffffffffffffffffffff1673ffffffffffffffffffffffffffffffffffffffff168152602001600382015481526020016004820160009054906101000a900460ff161515151581526020016005820180548060200260200160405190810160405280929190818152602001828054801561037a57602002820191906000526020600020905b8160009054906101000a900473ffffffffffffffffffffffffffffffffffffffff1673ffffffffffffffffffffffffffffffffffffffff1681526020019060010190808311610330575b50505050508152505081526020019060010190610243565b50505050905090565b6000805b600080549050811015610436573373ffffffffffffffffffffffffffffffffffffffff16600082815481106103d7576103d661115c565b5b9060005260206000200160009054906101000a900473ffffffffffffffffffffffffffffffffffffffff1673ffffffffffffffffffffffffffffffffffffffff16141561042357600191505b808061042e906111ba565b91505061039f565b50600115158115151461047e576040517f08c379a000000000000000000000000000000000000000000000000000000000815260040161047590611260565b60405180910390fd5b606060026040518060c0016040528060028054905081526020018681526020018573ffffffffffffffffffffffffffffffffffffffff16815260200160008152602001600015158152602001838152509080600181540180825580915050600190039060005260206000209060060201600090919091909150600082015181600001556020820151816001015560408201518160020160006101000a81548173ffffffffffffffffffffffffffffffffffffffff021916908373ffffffffffffffffffffffffffffffffffffffff1602179055506060820151816003015560808201518160040160006101000a81548160ff02191690831515021790555060a0820151816005019080519060200190610598929190610b5c565b50505050505050565b6060600080548060200260200160405190810160405280929190818152602001828054801561062557602002820191906000526020600020905b8160009054906101000a900473ffffffffffffffffffffffffffffffffffffffff1673ffffffffffffffffffffffffffffffffffffffff16815260200190600101908083116105db575b5050505050905090565b6002818154811061063f57600080fd5b90600052602060002090600602016000915090508060000154908060010154908060020160009054906101000a900473ffffffffffffffffffffffffffffffffffffffff16908060030154908060040160009054906101000a900460ff16905085565b6000805b60008054905081101561073d573373ffffffffffffffffffffffffffffffffffffffff16600082815481106106de576106dd61115c565b5b9060005260206000200160009054906101000a900473ffffffffffffffffffffffffffffffffffffffff1673ffffffffffffffffffffffffffffffffffffffff16141561072a57600191505b8080610735906111ba565b9150506106a6565b506001151581151514610785576040517f08c379a000000000000000000000000000000000000000000000000000000000815260040161077c90611260565b60405180910390fd5b600015156002838154811061079d5761079c61115c565b5b906000526020600020906006020160040160009054906101000a900460ff161515146107fe576040517f08c379a00000000000000000000000000000000000000000000000000000000081526004016107f5906112cc565b60405180910390fd5b60001515600360003373ffffffffffffffffffffffffffffffffffffffff1673ffffffffffffffffffffffffffffffffffffffff168152602001908152602001600020600084815260200190815260200160002060009054906101000a900460ff161515146108a2576040517f08c379a000000000000000000000000000000000000000000000000000000000815260040161089990611338565b60405180910390fd5b6001600360003373ffffffffffffffffffffffffffffffffffffffff1673ffffffffffffffffffffffffffffffffffffffff168152602001908152602001600020600084815260200190815260200160002060006101000a81548160ff0219169083151502179055506002828154811061091f5761091e61115c565b5b90600052602060002090600602016003016000815480929190610941906111ba565b91905055506002828154811061095a5761095961115c565b5b9060005260206000209060060201600501339080600181540180825580915050600190039060005260206000200160009091909190916101000a81548173ffffffffffffffffffffffffffffffffffffffff021916908373ffffffffffffffffffffffffffffffffffffffff160217905550600154600283815481106109e3576109e261115c565b5b90600052602060002090600602016003015410610aea57600160028381548110610a1057610a0f61115c565b5b906000526020600020906006020160040160006101000a81548160ff02191690831515021790555060028281548110610a4c57610a4b61115c565b5b906000526020600020906006020160020160009054906101000a900473ffffffffffffffffffffffffffffffffffffffff1673ffffffffffffffffffffffffffffffffffffffff166108fc60028481548110610aab57610aaa61115c565b5b9060005260206000209060060201600101549081150290604051600060405180830381858888f19350505050158015610ae8573d6000803e3d6000fd5b505b5050565b60008181548110610afe57600080fd5b906000526020600020016000915054906101000a900473ffffffffffffffffffffffffffffffffffffffff1681565b60036020528160005260406000206020528060005260406000206000915091509054906101000a900460ff1681565b828054828255906000526020600020908101928215610bd5579160200282015b82811115610bd45782518260006101000a81548173ffffffffffffffffffffffffffffffffffffffff021916908373ffffffffffffffffffffffffffffffffffffffff16021790555091602001919060010190610b7c565b5b509050610be29190610be6565b5090565b5b80821115610bff576000816000905550600101610be7565b5090565b6000819050919050565b610c1681610c03565b82525050565b6000602082019050610c316000830184610c0d565b92915050565b600081519050919050565b600082825260208201905092915050565b6000819050602082019050919050565b610c6c81610c03565b82525050565b600073ffffffffffffffffffffffffffffffffffffffff82169050919050565b6000610c9d82610c72565b9050919050565b610cad81610c92565b82525050565b60008115159050919050565b610cc881610cb3565b82525050565b600081519050919050565b600082825260208201905092915050565b6000819050602082019050919050565b6000610d0582610c72565b9050919050565b610d1581610cfa565b82525050565b6000610d278383610d0c565b60208301905092915050565b6000602082019050919050565b6000610d4b82610cce565b610d558185610cd9565b9350610d6083610cea565b8060005b83811015610d91578151610d788882610d1b565b9750610d8383610d33565b925050600181019050610d64565b5085935050505092915050565b600060c083016000830151610db66000860182610c63565b506020830151610dc96020860182610c63565b506040830151610ddc6040860182610ca4565b506060830151610def6060860182610c63565b506080830151610e026080860182610cbf565b5060a083015184820360a0860152610e1a8282610d40565b9150508091505092915050565b6000610e338383610d9e565b905092915050565b6000602082019050919050565b6000610e5382610c37565b610e5d8185610c42565b935083602082028501610e6f85610c53565b8060005b85811015610eab5784840389528151610e8c8582610e27565b9450610e9783610e3b565b925060208a01995050600181019050610e73565b50829750879550505050505092915050565b60006020820190508181036000830152610ed78184610e48565b905092915050565b600080fd5b610eed81610c03565b8114610ef857600080fd5b50565b600081359050610f0a81610ee4565b92915050565b610f1981610c92565b8114610f2457600080fd5b50565b600081359050610f3681610f10565b92915050565b60008060408385031215610f5357610f52610edf565b5b6000610f6185828601610efb565b9250506020610f7285828601610f27565b9150509250929050565b600082825260208201905092915050565b6000610f9882610cce565b610fa28185610f7c565b9350610fad83610cea565b8060005b83811015610fde578151610fc58882610d1b565b9750610fd083610d33565b925050600181019050610fb1565b5085935050505092915050565b600060208201905081810360008301526110058184610f8d565b905092915050565b60006020828403121561102357611022610edf565b5b600061103184828501610efb565b91505092915050565b61104381610c92565b82525050565b61105281610cb3565b82525050565b600060a08201905061106d6000830188610c0d565b61107a6020830187610c0d565b611087604083018661103a565b6110946060830185610c0d565b6110a16080830184611049565b9695505050505050565b6110b481610cfa565b82525050565b60006020820190506110cf60008301846110ab565b92915050565b6110de81610cfa565b81146110e957600080fd5b50565b6000813590506110fb816110d5565b92915050565b6000806040838503121561111857611117610edf565b5b6000611126858286016110ec565b925050602061113785828601610efb565b9150509250929050565b60006020820190506111566000830184611049565b92915050565b7f4e487b7100000000000000000000000000000000000000000000000000000000600052603260045260246000fd5b7f4e487b7100000000000000000000000000000000000000000000000000000000600052601160045260246000fd5b60006111c582610c03565b91507fffffffffffffffffffffffffffffffffffffffffffffffffffffffffffffffff8214156111f8576111f761118b565b5b600182019050919050565b600082825260208201905092915050565b7f6f6e6c7920617070726f76657220616c6c6f7765640000000000000000000000600082015250565b600061124a601583611203565b915061125582611214565b602082019050919050565b600060208201905081810360008301526112798161123d565b9050919050565b7f7472616e736665722068617320616c7265616479206265656e2073656e740000600082015250565b60006112b6601e83611203565b91506112c182611280565b602082019050919050565b600060208201905081810360008301526112e5816112a9565b9050919050565b7f63616e6e6f7420617070726f7665207472616e73666572207477696365000000600082015250565b6000611322601d83611203565b915061132d826112ec565b602082019050919050565b6000602082019050818103600083015261135181611315565b905091905056fea26469706673582212200f3c01516355c4c4cc8753f137c79487c7fbd5d8ff862e1fdf218d77254ab98264736f6c634300080c0033",
  "immutableReferences": {},
  "source": "pragma solidity 0.8.12;\npragma experimental ABIEncoderV2;\n\ncontract Wallet {\n    address[] public approvers;\n    uint public quorum;\n\n    struct Transfer {\n        uint id;\n        uint amount;\n        address payable to;\n        uint approvals;\n        bool sent;\n        address[] approvers;\n    }\n\n    Transfer[] public transfers;\n    mapping(address => mapping(uint => bool)) public approvals;\n\n    constructor(address[] memory _approvers, uint _quorum) {\n        approvers = _approvers;\n        quorum = _quorum;\n    }\n\n    function getApprovers() external view returns(address[] memory) {\n        return approvers;\n    }\n\n    function getTransfers() external view returns(Transfer[] memory) {\n        return transfers;\n    }\n\n    function createTransfer(uint amount, address payable to) external onlyApprover() {\n        address[] memory emptyAddressList;\n        transfers.push(Transfer(transfers.length, amount, to, 0, false, emptyAddressList));\n    }\n\n    function approveTransfer(uint id) external onlyApprover() {\n        require(transfers[id].sent == false, 'transfer has already been sent');\n        require(approvals[msg.sender][id] == false, 'cannot approve transfer twice');\n\n        approvals[msg.sender][id] = true;\n        transfers[id].approvals++;\n        transfers[id].approvers.push(msg.sender);\n        if (transfers[id].approvals >= quorum) {\n            transfers[id].sent = true;\n            transfers[id].to.transfer(transfers[id].amount);\n        }\n    }\n\n    receive() external payable {}\n\n    modifier onlyApprover() {\n        bool allowed = false;\n        for(uint i = 0; i < approvers.length; i++) {\n            if (approvers[i] ==  msg.sender) {\n                allowed = true;\n            }\n        }\n        require(allowed == true, 'only approver allowed');\n        _;\n    }\n}",
  "sourcePath": "/home/arenpulido/multisignature-wallet/contracts/Wallet.sol",
  "compiler": {
    "name": "solc",
    "version": "0.8.12+commit.f00d7308.Emscripten.clang"
  },
  "schemaVersion": "3.4.5",
  "updatedAt": "2022-03-13T23:57:30.262Z",
  "networkType": "ethereum",
  "devdoc": {
    "kind": "dev",
    "methods": {},
    "version": 1
  },
  "userdoc": {
    "kind": "user",
    "methods": {},
    "version": 1
  }
}